{
	"contracts/Moneybox.sol": {
		"Moneybox": {
			"abi": [
				{
					"inputs": [],
					"stateMutability": "nonpayable",
					"type": "constructor"
				},
				{
					"inputs": [],
					"name": "ballance",
					"outputs": [
						{
							"internalType": "uint256",
							"name": "",
							"type": "uint256"
						}
					],
					"stateMutability": "view",
					"type": "function"
				},
				{
					"inputs": [
						{
							"internalType": "uint256",
							"name": "amount",
							"type": "uint256"
						},
						{
							"internalType": "address payable",
							"name": "destAddr",
							"type": "address"
						}
					],
					"name": "withdraw",
					"outputs": [],
					"stateMutability": "nonpayable",
					"type": "function"
				},
				{
					"stateMutability": "payable",
					"type": "receive"
				}
			],
			"devdoc": {
				"kind": "dev",
				"methods": {},
				"version": 1
			},
			"evm": {
				"assembly": "    /* \"contracts/Moneybox.sol\":60:591  contract Moneybox {\r... */\n  mstore(0x40, 0x80)\n    /* \"contracts/Moneybox.sol\":147:198  constructor() {\r... */\n  callvalue\n  dup1\n  iszero\n  tag_1\n  jumpi\n  0x00\n  dup1\n  revert\ntag_1:\n  pop\n    /* \"contracts/Moneybox.sol\":180:190  msg.sender */\n  caller\n    /* \"contracts/Moneybox.sol\":172:177  owner */\n  0x01\n  0x00\n    /* \"contracts/Moneybox.sol\":172:190  owner = msg.sender */\n  0x0100\n  exp\n  dup2\n  sload\n  dup2\n  0xffffffffffffffffffffffffffffffffffffffff\n  mul\n  not\n  and\n  swap1\n  dup4\n  0xffffffffffffffffffffffffffffffffffffffff\n  and\n  mul\n  or\n  swap1\n  sstore\n  pop\n    /* \"contracts/Moneybox.sol\":60:591  contract Moneybox {\r... */\n  dataSize(sub_0)\n  dup1\n  dataOffset(sub_0)\n  0x00\n  codecopy\n  0x00\n  return\nstop\n\nsub_0: assembly {\n        /* \"contracts/Moneybox.sol\":60:591  contract Moneybox {\r... */\n      mstore(0x40, 0x80)\n      jumpi(tag_1, lt(calldatasize, 0x04))\n      shr(0xe0, calldataload(0x00))\n      dup1\n      0xf714ce\n      eq\n      tag_3\n      jumpi\n      dup1\n      0x19d7d305\n      eq\n      tag_4\n      jumpi\n      jump(tag_2)\n    tag_1:\n      jumpi(tag_2, calldatasize)\n        /* \"contracts/Moneybox.sol\":302:311  msg.value */\n      callvalue\n        /* \"contracts/Moneybox.sol\":290:298  ballance */\n      0x00\n      dup1\n        /* \"contracts/Moneybox.sol\":290:311  ballance += msg.value */\n      dup3\n      dup3\n      sload\n      tag_7\n      swap2\n      swap1\n      tag_8\n      jump\t// in\n    tag_7:\n      swap3\n      pop\n      pop\n      dup2\n      swap1\n      sstore\n      pop\n        /* \"contracts/Moneybox.sol\":60:591  contract Moneybox {\r... */\n      stop\n    tag_2:\n      0x00\n      dup1\n      revert\n        /* \"contracts/Moneybox.sol\":327:588  function withdraw(uint amount, address payable destAddr) public {\r... */\n    tag_3:\n      callvalue\n      dup1\n      iszero\n      tag_9\n      jumpi\n      0x00\n      dup1\n      revert\n    tag_9:\n      pop\n      tag_10\n      0x04\n      dup1\n      calldatasize\n      sub\n      dup2\n      add\n      swap1\n      tag_11\n      swap2\n      swap1\n      tag_12\n      jump\t// in\n    tag_11:\n      tag_13\n      jump\t// in\n    tag_10:\n      stop\n        /* \"contracts/Moneybox.sol\":87:110  uint256 public ballance */\n    tag_4:\n      callvalue\n      dup1\n      iszero\n      tag_14\n      jumpi\n      0x00\n      dup1\n      revert\n    tag_14:\n      pop\n      tag_15\n      tag_16\n      jump\t// in\n    tag_15:\n      mload(0x40)\n      tag_17\n      swap2\n      swap1\n      tag_18\n      jump\t// in\n    tag_17:\n      mload(0x40)\n      dup1\n      swap2\n      sub\n      swap1\n      return\n        /* \"contracts/Moneybox.sol\":327:588  function withdraw(uint amount, address payable destAddr) public {\r... */\n    tag_13:\n        /* \"contracts/Moneybox.sol\":422:428  amount */\n      dup2\n        /* \"contracts/Moneybox.sol\":410:418  ballance */\n      sload(0x00)\n        /* \"contracts/Moneybox.sol\":410:428  ballance >= amount */\n      lt\n      iszero\n        /* \"contracts/Moneybox.sol\":402:449  require(ballance >= amount, \"Not enough money\") */\n      tag_20\n      jumpi\n      mload(0x40)\n      0x08c379a000000000000000000000000000000000000000000000000000000000\n      dup2\n      mstore\n      0x04\n      add\n      tag_21\n      swap1\n      tag_22\n      jump\t// in\n    tag_21:\n      mload(0x40)\n      dup1\n      swap2\n      sub\n      swap1\n      revert\n    tag_20:\n        /* \"contracts/Moneybox.sol\":482:487  owner */\n      0x01\n      0x00\n      swap1\n      sload\n      swap1\n      0x0100\n      exp\n      swap1\n      div\n      0xffffffffffffffffffffffffffffffffffffffff\n      and\n        /* \"contracts/Moneybox.sol\":468:487  msg.sender == owner */\n      0xffffffffffffffffffffffffffffffffffffffff\n      and\n        /* \"contracts/Moneybox.sol\":468:478  msg.sender */\n      caller\n        /* \"contracts/Moneybox.sol\":468:487  msg.sender == owner */\n      0xffffffffffffffffffffffffffffffffffffffff\n      and\n      eq\n        /* \"contracts/Moneybox.sol\":460:515  require(msg.sender == owner, \"Only owner can withdraw\") */\n      tag_23\n      jumpi\n      mload(0x40)\n      0x08c379a000000000000000000000000000000000000000000000000000000000\n      dup2\n      mstore\n      0x04\n      add\n      tag_24\n      swap1\n      tag_25\n      jump\t// in\n    tag_24:\n      mload(0x40)\n      dup1\n      swap2\n      sub\n      swap1\n      revert\n    tag_23:\n        /* \"contracts/Moneybox.sol\":526:534  destAddr */\n      dup1\n        /* \"contracts/Moneybox.sol\":526:543  destAddr.transfer */\n      0xffffffffffffffffffffffffffffffffffffffff\n      and\n        /* \"contracts/Moneybox.sol\":526:551  destAddr.transfer(amount) */\n      0x08fc\n        /* \"contracts/Moneybox.sol\":544:550  amount */\n      dup4\n        /* \"contracts/Moneybox.sol\":526:551  destAddr.transfer(amount) */\n      swap1\n      dup2\n      iszero\n      mul\n      swap1\n      mload(0x40)\n      0x00\n      mload(0x40)\n      dup1\n      dup4\n      sub\n      dup2\n      dup6\n      dup9\n      dup9\n      call\n      swap4\n      pop\n      pop\n      pop\n      pop\n      iszero\n      dup1\n      iszero\n      tag_27\n      jumpi\n      returndatasize\n      0x00\n      dup1\n      returndatacopy\n      revert(0x00, returndatasize)\n    tag_27:\n      pop\n        /* \"contracts/Moneybox.sol\":574:580  amount */\n      dup2\n        /* \"contracts/Moneybox.sol\":562:570  ballance */\n      0x00\n      dup1\n        /* \"contracts/Moneybox.sol\":562:580  ballance -= amount */\n      dup3\n      dup3\n      sload\n      tag_28\n      swap2\n      swap1\n      tag_29\n      jump\t// in\n    tag_28:\n      swap3\n      pop\n      pop\n      dup2\n      swap1\n      sstore\n      pop\n        /* \"contracts/Moneybox.sol\":327:588  function withdraw(uint amount, address payable destAddr) public {\r... */\n      pop\n      pop\n      jump\t// out\n        /* \"contracts/Moneybox.sol\":87:110  uint256 public ballance */\n    tag_16:\n      sload(0x00)\n      dup2\n      jump\t// out\n        /* \"#utility.yul\":7:162   */\n    tag_31:\n      0x00\n        /* \"#utility.yul\":99:105   */\n      dup2\n        /* \"#utility.yul\":86:106   */\n      calldataload\n        /* \"#utility.yul\":77:106   */\n      swap1\n      pop\n        /* \"#utility.yul\":115:156   */\n      tag_33\n        /* \"#utility.yul\":150:155   */\n      dup2\n        /* \"#utility.yul\":115:156   */\n      tag_34\n      jump\t// in\n    tag_33:\n        /* \"#utility.yul\":67:162   */\n      swap3\n      swap2\n      pop\n      pop\n      jump\t// out\n        /* \"#utility.yul\":168:307   */\n    tag_35:\n      0x00\n        /* \"#utility.yul\":252:258   */\n      dup2\n        /* \"#utility.yul\":239:259   */\n      calldataload\n        /* \"#utility.yul\":230:259   */\n      swap1\n      pop\n        /* \"#utility.yul\":268:301   */\n      tag_37\n        /* \"#utility.yul\":295:300   */\n      dup2\n        /* \"#utility.yul\":268:301   */\n      tag_38\n      jump\t// in\n    tag_37:\n        /* \"#utility.yul\":220:307   */\n      swap3\n      swap2\n      pop\n      pop\n      jump\t// out\n        /* \"#utility.yul\":313:736   */\n    tag_12:\n      0x00\n      dup1\n        /* \"#utility.yul\":446:448   */\n      0x40\n        /* \"#utility.yul\":434:443   */\n      dup4\n        /* \"#utility.yul\":425:432   */\n      dup6\n        /* \"#utility.yul\":421:444   */\n      sub\n        /* \"#utility.yul\":417:449   */\n      slt\n        /* \"#utility.yul\":414:416   */\n      iszero\n      tag_40\n      jumpi\n        /* \"#utility.yul\":462:463   */\n      0x00\n        /* \"#utility.yul\":459:460   */\n      dup1\n        /* \"#utility.yul\":452:464   */\n      revert\n        /* \"#utility.yul\":414:416   */\n    tag_40:\n        /* \"#utility.yul\":505:506   */\n      0x00\n        /* \"#utility.yul\":530:583   */\n      tag_41\n        /* \"#utility.yul\":575:582   */\n      dup6\n        /* \"#utility.yul\":566:572   */\n      dup3\n        /* \"#utility.yul\":555:564   */\n      dup7\n        /* \"#utility.yul\":551:573   */\n      add\n        /* \"#utility.yul\":530:583   */\n      tag_35\n      jump\t// in\n    tag_41:\n        /* \"#utility.yul\":520:583   */\n      swap3\n      pop\n        /* \"#utility.yul\":476:593   */\n      pop\n        /* \"#utility.yul\":632:634   */\n      0x20\n        /* \"#utility.yul\":658:719   */\n      tag_42\n        /* \"#utility.yul\":711:718   */\n      dup6\n        /* \"#utility.yul\":702:708   */\n      dup3\n        /* \"#utility.yul\":691:700   */\n      dup7\n        /* \"#utility.yul\":687:709   */\n      add\n        /* \"#utility.yul\":658:719   */\n      tag_31\n      jump\t// in\n    tag_42:\n        /* \"#utility.yul\":648:719   */\n      swap2\n      pop\n        /* \"#utility.yul\":603:729   */\n      pop\n        /* \"#utility.yul\":404:736   */\n      swap3\n      pop\n      swap3\n      swap1\n      pop\n      jump\t// out\n        /* \"#utility.yul\":742:1056   */\n    tag_43:\n      0x00\n        /* \"#utility.yul\":905:972   */\n      tag_45\n        /* \"#utility.yul\":969:971   */\n      0x10\n        /* \"#utility.yul\":964:967   */\n      dup4\n        /* \"#utility.yul\":905:972   */\n      tag_46\n      jump\t// in\n    tag_45:\n        /* \"#utility.yul\":898:972   */\n      swap2\n      pop\n        /* \"#utility.yul\":1002:1020   */\n      0x4e6f7420656e6f756768206d6f6e657900000000000000000000000000000000\n        /* \"#utility.yul\":998:999   */\n      0x00\n        /* \"#utility.yul\":993:996   */\n      dup4\n        /* \"#utility.yul\":989:1000   */\n      add\n        /* \"#utility.yul\":982:1021   */\n      mstore\n        /* \"#utility.yul\":1047:1049   */\n      0x20\n        /* \"#utility.yul\":1042:1045   */\n      dup3\n        /* \"#utility.yul\":1038:1050   */\n      add\n        /* \"#utility.yul\":1031:1050   */\n      swap1\n      pop\n        /* \"#utility.yul\":888:1056   */\n      swap2\n      swap1\n      pop\n      jump\t// out\n        /* \"#utility.yul\":1062:1383   */\n    tag_47:\n      0x00\n        /* \"#utility.yul\":1225:1292   */\n      tag_49\n        /* \"#utility.yul\":1289:1291   */\n      0x17\n        /* \"#utility.yul\":1284:1287   */\n      dup4\n        /* \"#utility.yul\":1225:1292   */\n      tag_46\n      jump\t// in\n    tag_49:\n        /* \"#utility.yul\":1218:1292   */\n      swap2\n      pop\n        /* \"#utility.yul\":1322:1347   */\n      0x4f6e6c79206f776e65722063616e207769746864726177000000000000000000\n        /* \"#utility.yul\":1318:1319   */\n      0x00\n        /* \"#utility.yul\":1313:1316   */\n      dup4\n        /* \"#utility.yul\":1309:1320   */\n      add\n        /* \"#utility.yul\":1302:1348   */\n      mstore\n        /* \"#utility.yul\":1374:1376   */\n      0x20\n        /* \"#utility.yul\":1369:1372   */\n      dup3\n        /* \"#utility.yul\":1365:1377   */\n      add\n        /* \"#utility.yul\":1358:1377   */\n      swap1\n      pop\n        /* \"#utility.yul\":1208:1383   */\n      swap2\n      swap1\n      pop\n      jump\t// out\n        /* \"#utility.yul\":1389:1507   */\n    tag_50:\n        /* \"#utility.yul\":1476:1500   */\n      tag_52\n        /* \"#utility.yul\":1494:1499   */\n      dup2\n        /* \"#utility.yul\":1476:1500   */\n      tag_53\n      jump\t// in\n    tag_52:\n        /* \"#utility.yul\":1471:1474   */\n      dup3\n        /* \"#utility.yul\":1464:1501   */\n      mstore\n        /* \"#utility.yul\":1454:1507   */\n      pop\n      pop\n      jump\t// out\n        /* \"#utility.yul\":1513:1932   */\n    tag_22:\n      0x00\n        /* \"#utility.yul\":1717:1719   */\n      0x20\n        /* \"#utility.yul\":1706:1715   */\n      dup3\n        /* \"#utility.yul\":1702:1720   */\n      add\n        /* \"#utility.yul\":1694:1720   */\n      swap1\n      pop\n        /* \"#utility.yul\":1766:1775   */\n      dup2\n        /* \"#utility.yul\":1760:1764   */\n      dup2\n        /* \"#utility.yul\":1756:1776   */\n      sub\n        /* \"#utility.yul\":1752:1753   */\n      0x00\n        /* \"#utility.yul\":1741:1750   */\n      dup4\n        /* \"#utility.yul\":1737:1754   */\n      add\n        /* \"#utility.yul\":1730:1777   */\n      mstore\n        /* \"#utility.yul\":1794:1925   */\n      tag_55\n        /* \"#utility.yul\":1920:1924   */\n      dup2\n        /* \"#utility.yul\":1794:1925   */\n      tag_43\n      jump\t// in\n    tag_55:\n        /* \"#utility.yul\":1786:1925   */\n      swap1\n      pop\n        /* \"#utility.yul\":1684:1932   */\n      swap2\n      swap1\n      pop\n      jump\t// out\n        /* \"#utility.yul\":1938:2357   */\n    tag_25:\n      0x00\n        /* \"#utility.yul\":2142:2144   */\n      0x20\n        /* \"#utility.yul\":2131:2140   */\n      dup3\n        /* \"#utility.yul\":2127:2145   */\n      add\n        /* \"#utility.yul\":2119:2145   */\n      swap1\n      pop\n        /* \"#utility.yul\":2191:2200   */\n      dup2\n        /* \"#utility.yul\":2185:2189   */\n      dup2\n        /* \"#utility.yul\":2181:2201   */\n      sub\n        /* \"#utility.yul\":2177:2178   */\n      0x00\n        /* \"#utility.yul\":2166:2175   */\n      dup4\n        /* \"#utility.yul\":2162:2179   */\n      add\n        /* \"#utility.yul\":2155:2202   */\n      mstore\n        /* \"#utility.yul\":2219:2350   */\n      tag_57\n        /* \"#utility.yul\":2345:2349   */\n      dup2\n        /* \"#utility.yul\":2219:2350   */\n      tag_47\n      jump\t// in\n    tag_57:\n        /* \"#utility.yul\":2211:2350   */\n      swap1\n      pop\n        /* \"#utility.yul\":2109:2357   */\n      swap2\n      swap1\n      pop\n      jump\t// out\n        /* \"#utility.yul\":2363:2585   */\n    tag_18:\n      0x00\n        /* \"#utility.yul\":2494:2496   */\n      0x20\n        /* \"#utility.yul\":2483:2492   */\n      dup3\n        /* \"#utility.yul\":2479:2497   */\n      add\n        /* \"#utility.yul\":2471:2497   */\n      swap1\n      pop\n        /* \"#utility.yul\":2507:2578   */\n      tag_59\n        /* \"#utility.yul\":2575:2576   */\n      0x00\n        /* \"#utility.yul\":2564:2573   */\n      dup4\n        /* \"#utility.yul\":2560:2577   */\n      add\n        /* \"#utility.yul\":2551:2557   */\n      dup5\n        /* \"#utility.yul\":2507:2578   */\n      tag_50\n      jump\t// in\n    tag_59:\n        /* \"#utility.yul\":2461:2585   */\n      swap3\n      swap2\n      pop\n      pop\n      jump\t// out\n        /* \"#utility.yul\":2591:2760   */\n    tag_46:\n      0x00\n        /* \"#utility.yul\":2709:2715   */\n      dup3\n        /* \"#utility.yul\":2704:2707   */\n      dup3\n        /* \"#utility.yul\":2697:2716   */\n      mstore\n        /* \"#utility.yul\":2749:2753   */\n      0x20\n        /* \"#utility.yul\":2744:2747   */\n      dup3\n        /* \"#utility.yul\":2740:2754   */\n      add\n        /* \"#utility.yul\":2725:2754   */\n      swap1\n      pop\n        /* \"#utility.yul\":2687:2760   */\n      swap3\n      swap2\n      pop\n      pop\n      jump\t// out\n        /* \"#utility.yul\":2766:3071   */\n    tag_8:\n      0x00\n        /* \"#utility.yul\":2825:2845   */\n      tag_62\n        /* \"#utility.yul\":2843:2844   */\n      dup3\n        /* \"#utility.yul\":2825:2845   */\n      tag_53\n      jump\t// in\n    tag_62:\n        /* \"#utility.yul\":2820:2845   */\n      swap2\n      pop\n        /* \"#utility.yul\":2859:2879   */\n      tag_63\n        /* \"#utility.yul\":2877:2878   */\n      dup4\n        /* \"#utility.yul\":2859:2879   */\n      tag_53\n      jump\t// in\n    tag_63:\n        /* \"#utility.yul\":2854:2879   */\n      swap3\n      pop\n        /* \"#utility.yul\":3013:3014   */\n      dup3\n        /* \"#utility.yul\":2945:3011   */\n      0xffffffffffffffffffffffffffffffffffffffffffffffffffffffffffffffff\n        /* \"#utility.yul\":2941:3015   */\n      sub\n        /* \"#utility.yul\":2938:2939   */\n      dup3\n        /* \"#utility.yul\":2935:3016   */\n      gt\n        /* \"#utility.yul\":2932:2934   */\n      iszero\n      tag_64\n      jumpi\n        /* \"#utility.yul\":3019:3037   */\n      tag_65\n      tag_66\n      jump\t// in\n    tag_65:\n        /* \"#utility.yul\":2932:2934   */\n    tag_64:\n        /* \"#utility.yul\":3063:3064   */\n      dup3\n        /* \"#utility.yul\":3060:3061   */\n      dup3\n        /* \"#utility.yul\":3056:3065   */\n      add\n        /* \"#utility.yul\":3049:3065   */\n      swap1\n      pop\n        /* \"#utility.yul\":2810:3071   */\n      swap3\n      swap2\n      pop\n      pop\n      jump\t// out\n        /* \"#utility.yul\":3077:3268   */\n    tag_29:\n      0x00\n        /* \"#utility.yul\":3137:3157   */\n      tag_68\n        /* \"#utility.yul\":3155:3156   */\n      dup3\n        /* \"#utility.yul\":3137:3157   */\n      tag_53\n      jump\t// in\n    tag_68:\n        /* \"#utility.yul\":3132:3157   */\n      swap2\n      pop\n        /* \"#utility.yul\":3171:3191   */\n      tag_69\n        /* \"#utility.yul\":3189:3190   */\n      dup4\n        /* \"#utility.yul\":3171:3191   */\n      tag_53\n      jump\t// in\n    tag_69:\n        /* \"#utility.yul\":3166:3191   */\n      swap3\n      pop\n        /* \"#utility.yul\":3210:3211   */\n      dup3\n        /* \"#utility.yul\":3207:3208   */\n      dup3\n        /* \"#utility.yul\":3204:3212   */\n      lt\n        /* \"#utility.yul\":3201:3203   */\n      iszero\n      tag_70\n      jumpi\n        /* \"#utility.yul\":3215:3233   */\n      tag_71\n      tag_66\n      jump\t// in\n    tag_71:\n        /* \"#utility.yul\":3201:3203   */\n    tag_70:\n        /* \"#utility.yul\":3260:3261   */\n      dup3\n        /* \"#utility.yul\":3257:3258   */\n      dup3\n        /* \"#utility.yul\":3253:3262   */\n      sub\n        /* \"#utility.yul\":3245:3262   */\n      swap1\n      pop\n        /* \"#utility.yul\":3122:3268   */\n      swap3\n      swap2\n      pop\n      pop\n      jump\t// out\n        /* \"#utility.yul\":3274:3378   */\n    tag_72:\n      0x00\n        /* \"#utility.yul\":3348:3372   */\n      tag_74\n        /* \"#utility.yul\":3366:3371   */\n      dup3\n        /* \"#utility.yul\":3348:3372   */\n      tag_75\n      jump\t// in\n    tag_74:\n        /* \"#utility.yul\":3337:3372   */\n      swap1\n      pop\n        /* \"#utility.yul\":3327:3378   */\n      swap2\n      swap1\n      pop\n      jump\t// out\n        /* \"#utility.yul\":3384:3510   */\n    tag_75:\n      0x00\n        /* \"#utility.yul\":3461:3503   */\n      0xffffffffffffffffffffffffffffffffffffffff\n        /* \"#utility.yul\":3454:3459   */\n      dup3\n        /* \"#utility.yul\":3450:3504   */\n      and\n        /* \"#utility.yul\":3439:3504   */\n      swap1\n      pop\n        /* \"#utility.yul\":3429:3510   */\n      swap2\n      swap1\n      pop\n      jump\t// out\n        /* \"#utility.yul\":3516:3593   */\n    tag_53:\n      0x00\n        /* \"#utility.yul\":3582:3587   */\n      dup2\n        /* \"#utility.yul\":3571:3587   */\n      swap1\n      pop\n        /* \"#utility.yul\":3561:3593   */\n      swap2\n      swap1\n      pop\n      jump\t// out\n        /* \"#utility.yul\":3599:3779   */\n    tag_66:\n        /* \"#utility.yul\":3647:3724   */\n      0x4e487b7100000000000000000000000000000000000000000000000000000000\n        /* \"#utility.yul\":3644:3645   */\n      0x00\n        /* \"#utility.yul\":3637:3725   */\n      mstore\n        /* \"#utility.yul\":3744:3748   */\n      0x11\n        /* \"#utility.yul\":3741:3742   */\n      0x04\n        /* \"#utility.yul\":3734:3749   */\n      mstore\n        /* \"#utility.yul\":3768:3772   */\n      0x24\n        /* \"#utility.yul\":3765:3766   */\n      0x00\n        /* \"#utility.yul\":3758:3773   */\n      revert\n        /* \"#utility.yul\":3785:3923   */\n    tag_34:\n        /* \"#utility.yul\":3866:3898   */\n      tag_80\n        /* \"#utility.yul\":3892:3897   */\n      dup2\n        /* \"#utility.yul\":3866:3898   */\n      tag_72\n      jump\t// in\n    tag_80:\n        /* \"#utility.yul\":3859:3864   */\n      dup2\n        /* \"#utility.yul\":3856:3899   */\n      eq\n        /* \"#utility.yul\":3846:3848   */\n      tag_81\n      jumpi\n        /* \"#utility.yul\":3913:3914   */\n      0x00\n        /* \"#utility.yul\":3910:3911   */\n      dup1\n        /* \"#utility.yul\":3903:3915   */\n      revert\n        /* \"#utility.yul\":3846:3848   */\n    tag_81:\n        /* \"#utility.yul\":3836:3923   */\n      pop\n      jump\t// out\n        /* \"#utility.yul\":3929:4051   */\n    tag_38:\n        /* \"#utility.yul\":4002:4026   */\n      tag_83\n        /* \"#utility.yul\":4020:4025   */\n      dup2\n        /* \"#utility.yul\":4002:4026   */\n      tag_53\n      jump\t// in\n    tag_83:\n        /* \"#utility.yul\":3995:4000   */\n      dup2\n        /* \"#utility.yul\":3992:4027   */\n      eq\n        /* \"#utility.yul\":3982:3984   */\n      tag_84\n      jumpi\n        /* \"#utility.yul\":4041:4042   */\n      0x00\n        /* \"#utility.yul\":4038:4039   */\n      dup1\n        /* \"#utility.yul\":4031:4043   */\n      revert\n        /* \"#utility.yul\":3982:3984   */\n    tag_84:\n        /* \"#utility.yul\":3972:4051   */\n      pop\n      jump\t// out\n\n    auxdata: 0xa2646970667358221220aed4a8c9f696bc3ff2a7e7dd15af3a50bdfdf29108aa737ca3bf0fda1edfb76d64736f6c63430008000033\n}\n",
				"bytecode": {
					"linkReferences": {},
					"object": "608060405234801561001057600080fd5b5033600160006101000a81548173ffffffffffffffffffffffffffffffffffffffff021916908373ffffffffffffffffffffffffffffffffffffffff16021790555061049c806100616000396000f3fe60806040526004361061002c5760003560e01c8062f714ce1461005057806319d7d305146100795761004b565b3661004b57346000808282546100429190610343565b92505081905550005b600080fd5b34801561005c57600080fd5b506100776004803603810190610072919061020c565b6100a4565b005b34801561008557600080fd5b5061008e6101dc565b60405161009b9190610317565b60405180910390f35b8160005410156100e9576040517f08c379a00000000000000000000000000000000000000000000000000000000081526004016100e0906102d7565b60405180910390fd5b600160009054906101000a900473ffffffffffffffffffffffffffffffffffffffff1673ffffffffffffffffffffffffffffffffffffffff163373ffffffffffffffffffffffffffffffffffffffff1614610179576040517f08c379a0000000000000000000000000000000000000000000000000000000008152600401610170906102f7565b60405180910390fd5b8073ffffffffffffffffffffffffffffffffffffffff166108fc839081150290604051600060405180830381858888f193505050501580156101bf573d6000803e3d6000fd5b50816000808282546101d19190610399565b925050819055505050565b60005481565b6000813590506101f181610438565b92915050565b6000813590506102068161044f565b92915050565b6000806040838503121561021f57600080fd5b600061022d858286016101f7565b925050602061023e858286016101e2565b9150509250929050565b6000610255601083610332565b91507f4e6f7420656e6f756768206d6f6e6579000000000000000000000000000000006000830152602082019050919050565b6000610295601783610332565b91507f4f6e6c79206f776e65722063616e2077697468647261770000000000000000006000830152602082019050919050565b6102d1816103ff565b82525050565b600060208201905081810360008301526102f081610248565b9050919050565b6000602082019050818103600083015261031081610288565b9050919050565b600060208201905061032c60008301846102c8565b92915050565b600082825260208201905092915050565b600061034e826103ff565b9150610359836103ff565b9250827fffffffffffffffffffffffffffffffffffffffffffffffffffffffffffffffff0382111561038e5761038d610409565b5b828201905092915050565b60006103a4826103ff565b91506103af836103ff565b9250828210156103c2576103c1610409565b5b828203905092915050565b60006103d8826103df565b9050919050565b600073ffffffffffffffffffffffffffffffffffffffff82169050919050565b6000819050919050565b7f4e487b7100000000000000000000000000000000000000000000000000000000600052601160045260246000fd5b610441816103cd565b811461044c57600080fd5b50565b610458816103ff565b811461046357600080fd5b5056fea2646970667358221220aed4a8c9f696bc3ff2a7e7dd15af3a50bdfdf29108aa737ca3bf0fda1edfb76d64736f6c63430008000033",
					"opcodes": "PUSH1 0x80 PUSH1 0x40 MSTORE CALLVALUE DUP1 ISZERO PUSH2 0x10 JUMPI PUSH1 0x0 DUP1 REVERT JUMPDEST POP CALLER PUSH1 0x1 PUSH1 0x0 PUSH2 0x100 EXP DUP2 SLOAD DUP2 PUSH20 0xFFFFFFFFFFFFFFFFFFFFFFFFFFFFFFFFFFFFFFFF MUL NOT AND SWAP1 DUP4 PUSH20 0xFFFFFFFFFFFFFFFFFFFFFFFFFFFFFFFFFFFFFFFF AND MUL OR SWAP1 SSTORE POP PUSH2 0x49C DUP1 PUSH2 0x61 PUSH1 0x0 CODECOPY PUSH1 0x0 RETURN INVALID PUSH1 0x80 PUSH1 0x40 MSTORE PUSH1 0x4 CALLDATASIZE LT PUSH2 0x2C JUMPI PUSH1 0x0 CALLDATALOAD PUSH1 0xE0 SHR DUP1 PUSH3 0xF714CE EQ PUSH2 0x50 JUMPI DUP1 PUSH4 0x19D7D305 EQ PUSH2 0x79 JUMPI PUSH2 0x4B JUMP JUMPDEST CALLDATASIZE PUSH2 0x4B JUMPI CALLVALUE PUSH1 0x0 DUP1 DUP3 DUP3 SLOAD PUSH2 0x42 SWAP2 SWAP1 PUSH2 0x343 JUMP JUMPDEST SWAP3 POP POP DUP2 SWAP1 SSTORE POP STOP JUMPDEST PUSH1 0x0 DUP1 REVERT JUMPDEST CALLVALUE DUP1 ISZERO PUSH2 0x5C JUMPI PUSH1 0x0 DUP1 REVERT JUMPDEST POP PUSH2 0x77 PUSH1 0x4 DUP1 CALLDATASIZE SUB DUP2 ADD SWAP1 PUSH2 0x72 SWAP2 SWAP1 PUSH2 0x20C JUMP JUMPDEST PUSH2 0xA4 JUMP JUMPDEST STOP JUMPDEST CALLVALUE DUP1 ISZERO PUSH2 0x85 JUMPI PUSH1 0x0 DUP1 REVERT JUMPDEST POP PUSH2 0x8E PUSH2 0x1DC JUMP JUMPDEST PUSH1 0x40 MLOAD PUSH2 0x9B SWAP2 SWAP1 PUSH2 0x317 JUMP JUMPDEST PUSH1 0x40 MLOAD DUP1 SWAP2 SUB SWAP1 RETURN JUMPDEST DUP2 PUSH1 0x0 SLOAD LT ISZERO PUSH2 0xE9 JUMPI PUSH1 0x40 MLOAD PUSH32 0x8C379A000000000000000000000000000000000000000000000000000000000 DUP2 MSTORE PUSH1 0x4 ADD PUSH2 0xE0 SWAP1 PUSH2 0x2D7 JUMP JUMPDEST PUSH1 0x40 MLOAD DUP1 SWAP2 SUB SWAP1 REVERT JUMPDEST PUSH1 0x1 PUSH1 0x0 SWAP1 SLOAD SWAP1 PUSH2 0x100 EXP SWAP1 DIV PUSH20 0xFFFFFFFFFFFFFFFFFFFFFFFFFFFFFFFFFFFFFFFF AND PUSH20 0xFFFFFFFFFFFFFFFFFFFFFFFFFFFFFFFFFFFFFFFF AND CALLER PUSH20 0xFFFFFFFFFFFFFFFFFFFFFFFFFFFFFFFFFFFFFFFF AND EQ PUSH2 0x179 JUMPI PUSH1 0x40 MLOAD PUSH32 0x8C379A000000000000000000000000000000000000000000000000000000000 DUP2 MSTORE PUSH1 0x4 ADD PUSH2 0x170 SWAP1 PUSH2 0x2F7 JUMP JUMPDEST PUSH1 0x40 MLOAD DUP1 SWAP2 SUB SWAP1 REVERT JUMPDEST DUP1 PUSH20 0xFFFFFFFFFFFFFFFFFFFFFFFFFFFFFFFFFFFFFFFF AND PUSH2 0x8FC DUP4 SWAP1 DUP2 ISZERO MUL SWAP1 PUSH1 0x40 MLOAD PUSH1 0x0 PUSH1 0x40 MLOAD DUP1 DUP4 SUB DUP2 DUP6 DUP9 DUP9 CALL SWAP4 POP POP POP POP ISZERO DUP1 ISZERO PUSH2 0x1BF JUMPI RETURNDATASIZE PUSH1 0x0 DUP1 RETURNDATACOPY RETURNDATASIZE PUSH1 0x0 REVERT JUMPDEST POP DUP2 PUSH1 0x0 DUP1 DUP3 DUP3 SLOAD PUSH2 0x1D1 SWAP2 SWAP1 PUSH2 0x399 JUMP JUMPDEST SWAP3 POP POP DUP2 SWAP1 SSTORE POP POP POP JUMP JUMPDEST PUSH1 0x0 SLOAD DUP2 JUMP JUMPDEST PUSH1 0x0 DUP2 CALLDATALOAD SWAP1 POP PUSH2 0x1F1 DUP2 PUSH2 0x438 JUMP JUMPDEST SWAP3 SWAP2 POP POP JUMP JUMPDEST PUSH1 0x0 DUP2 CALLDATALOAD SWAP1 POP PUSH2 0x206 DUP2 PUSH2 0x44F JUMP JUMPDEST SWAP3 SWAP2 POP POP JUMP JUMPDEST PUSH1 0x0 DUP1 PUSH1 0x40 DUP4 DUP6 SUB SLT ISZERO PUSH2 0x21F JUMPI PUSH1 0x0 DUP1 REVERT JUMPDEST PUSH1 0x0 PUSH2 0x22D DUP6 DUP3 DUP7 ADD PUSH2 0x1F7 JUMP JUMPDEST SWAP3 POP POP PUSH1 0x20 PUSH2 0x23E DUP6 DUP3 DUP7 ADD PUSH2 0x1E2 JUMP JUMPDEST SWAP2 POP POP SWAP3 POP SWAP3 SWAP1 POP JUMP JUMPDEST PUSH1 0x0 PUSH2 0x255 PUSH1 0x10 DUP4 PUSH2 0x332 JUMP JUMPDEST SWAP2 POP PUSH32 0x4E6F7420656E6F756768206D6F6E657900000000000000000000000000000000 PUSH1 0x0 DUP4 ADD MSTORE PUSH1 0x20 DUP3 ADD SWAP1 POP SWAP2 SWAP1 POP JUMP JUMPDEST PUSH1 0x0 PUSH2 0x295 PUSH1 0x17 DUP4 PUSH2 0x332 JUMP JUMPDEST SWAP2 POP PUSH32 0x4F6E6C79206F776E65722063616E207769746864726177000000000000000000 PUSH1 0x0 DUP4 ADD MSTORE PUSH1 0x20 DUP3 ADD SWAP1 POP SWAP2 SWAP1 POP JUMP JUMPDEST PUSH2 0x2D1 DUP2 PUSH2 0x3FF JUMP JUMPDEST DUP3 MSTORE POP POP JUMP JUMPDEST PUSH1 0x0 PUSH1 0x20 DUP3 ADD SWAP1 POP DUP2 DUP2 SUB PUSH1 0x0 DUP4 ADD MSTORE PUSH2 0x2F0 DUP2 PUSH2 0x248 JUMP JUMPDEST SWAP1 POP SWAP2 SWAP1 POP JUMP JUMPDEST PUSH1 0x0 PUSH1 0x20 DUP3 ADD SWAP1 POP DUP2 DUP2 SUB PUSH1 0x0 DUP4 ADD MSTORE PUSH2 0x310 DUP2 PUSH2 0x288 JUMP JUMPDEST SWAP1 POP SWAP2 SWAP1 POP JUMP JUMPDEST PUSH1 0x0 PUSH1 0x20 DUP3 ADD SWAP1 POP PUSH2 0x32C PUSH1 0x0 DUP4 ADD DUP5 PUSH2 0x2C8 JUMP JUMPDEST SWAP3 SWAP2 POP POP JUMP JUMPDEST PUSH1 0x0 DUP3 DUP3 MSTORE PUSH1 0x20 DUP3 ADD SWAP1 POP SWAP3 SWAP2 POP POP JUMP JUMPDEST PUSH1 0x0 PUSH2 0x34E DUP3 PUSH2 0x3FF JUMP JUMPDEST SWAP2 POP PUSH2 0x359 DUP4 PUSH2 0x3FF JUMP JUMPDEST SWAP3 POP DUP3 PUSH32 0xFFFFFFFFFFFFFFFFFFFFFFFFFFFFFFFFFFFFFFFFFFFFFFFFFFFFFFFFFFFFFFFF SUB DUP3 GT ISZERO PUSH2 0x38E JUMPI PUSH2 0x38D PUSH2 0x409 JUMP JUMPDEST JUMPDEST DUP3 DUP3 ADD SWAP1 POP SWAP3 SWAP2 POP POP JUMP JUMPDEST PUSH1 0x0 PUSH2 0x3A4 DUP3 PUSH2 0x3FF JUMP JUMPDEST SWAP2 POP PUSH2 0x3AF DUP4 PUSH2 0x3FF JUMP JUMPDEST SWAP3 POP DUP3 DUP3 LT ISZERO PUSH2 0x3C2 JUMPI PUSH2 0x3C1 PUSH2 0x409 JUMP JUMPDEST JUMPDEST DUP3 DUP3 SUB SWAP1 POP SWAP3 SWAP2 POP POP JUMP JUMPDEST PUSH1 0x0 PUSH2 0x3D8 DUP3 PUSH2 0x3DF JUMP JUMPDEST SWAP1 POP SWAP2 SWAP1 POP JUMP JUMPDEST PUSH1 0x0 PUSH20 0xFFFFFFFFFFFFFFFFFFFFFFFFFFFFFFFFFFFFFFFF DUP3 AND SWAP1 POP SWAP2 SWAP1 POP JUMP JUMPDEST PUSH1 0x0 DUP2 SWAP1 POP SWAP2 SWAP1 POP JUMP JUMPDEST PUSH32 0x4E487B7100000000000000000000000000000000000000000000000000000000 PUSH1 0x0 MSTORE PUSH1 0x11 PUSH1 0x4 MSTORE PUSH1 0x24 PUSH1 0x0 REVERT JUMPDEST PUSH2 0x441 DUP2 PUSH2 0x3CD JUMP JUMPDEST DUP2 EQ PUSH2 0x44C JUMPI PUSH1 0x0 DUP1 REVERT JUMPDEST POP JUMP JUMPDEST PUSH2 0x458 DUP2 PUSH2 0x3FF JUMP JUMPDEST DUP2 EQ PUSH2 0x463 JUMPI PUSH1 0x0 DUP1 REVERT JUMPDEST POP JUMP INVALID LOG2 PUSH5 0x6970667358 0x22 SLT KECCAK256 0xAE 0xD4 0xA8 0xC9 0xF6 SWAP7 0xBC EXTCODEHASH CALLCODE 0xA7 0xE7 0xDD ISZERO 0xAF GASPRICE POP 0xBD REVERT CALLCODE SWAP2 ADDMOD 0xAA PUSH20 0x7CA3BF0FDA1EDFB76D64736F6C63430008000033 "
				},
				"gasEstimates": {
					"creation": {
						"codeDepositCost": "236000",
						"executionCost": "21141",
						"totalCost": "257141"
					},
					"external": {
						"ballance()": "1129",
						"withdraw(uint256,address)": "infinite"
					}
				},
				"methodIdentifiers": {
					"ballance()": "19d7d305",
					"withdraw(uint256,address)": "00f714ce"
				}
			},
			"storageLayout": {
				"storage": [
					{
						"astId": 3,
						"contract": "contracts/Moneybox.sol:Moneybox",
						"label": "ballance",
						"offset": 0,
						"slot": "0",
						"type": "t_uint256"
					},
					{
						"astId": 5,
						"contract": "contracts/Moneybox.sol:Moneybox",
						"label": "owner",
						"offset": 0,
						"slot": "1",
						"type": "t_address"
					}
				],
				"types": {
					"t_address": {
						"encoding": "inplace",
						"label": "address",
						"numberOfBytes": "20"
					},
					"t_uint256": {
						"encoding": "inplace",
						"label": "uint256",
						"numberOfBytes": "32"
					}
				}
			},
			"userdoc": {
				"kind": "user",
				"methods": {},
				"version": 1
			}
		}
	}
}